:020000040800F2
:1000000000000220993100082D2D0008352D000830
:100010003D2D0008452D00084D2D00080000000072
:10002000000000000000000000000000552D000846
:10003000632D000800000000712D00087F2D0008CE
:10004000E9310008E9310008E9310008E931000828
:10005000E9310008E9310008E9310008E931000818
:10006000E9310008E9310008E9310008E931000808
:10007000E9310008E9310008E9310008E9310008F8
:100080008D2D0008E9310008E9310008000000006A
:10009000000000000000000000000000E93100083E
:1000A000E9310008E9310008E9310008E9310008C8
:1000B000E9310008E9310008E9310008E9310008B8
:1000C000E9310008E9310008E9310008E9310008A8
:1000D000E9310008E9310008E931000800000000BA
:1000E000E9310008E9310008E931000800000000AA
:1000F000000000000000000000000000E9310008DE
:1001000000000000E9310008E9310008E931000889
:1001100000000000000000000000000000000000DF
:10012000A12D0008E9310008E9310008E931000893
:10013000E93100080000000000000000000000009D
:10014000000000000000000000000000E93100088D
:10015000E9310008E9310008E9310008E931000817
:10016000E9310008E931000800000000000000004B
:10017000000000000000000000000000000000007F
:1001800000000000E931000800000000000000004D
:08019000E9310008E931000823
:1001A00010B5054C237833B9044B13B10448AFF3B1
:1001B00000800123237010BDE0010020000000003A
:1001C000C4C8000808B5034B1BB103490348AFF38B
:1001D000008008BD00000000E4010020C4C8000841
:1001E00001F0FF01102A2BDB10F0070F08D010F8E8
:1001F000013B013A8B422DD010F0070F42B3F6D1EC
:10020000F0B441EA012141EA014122F007047FF004
:1002100000070023F0E80256083C85EA010586EA5B
:10022000010685FA47F5A3FA87F586FA47F6A5FA97
:1002300087F68EB9EED1F0BC01F0FF0102F00702A3
:1002400032B110F8013B013A83EA010313B1F8D14E
:100250000020704701387047002D06BF354603382F
:10026000073815F0010F07D1013015F4807F02BF68
:10027000013015F4C03F0130F0BC0138704700BFB9
:10028000034613F8012B002AFBD1181A01387047D6
:1002900081F0004102E000BF83F0004330B54FEA37
:1002A00041044FEA430594EA050F08BF90EA020FA4
:1002B0001FBF54EA000C55EA020C7FEA645C7FEA37
:1002C000655C00F0E2804FEA5454D4EB5555B8BF5A
:1002D0006D420CDD2C4480EA020281EA030382EACB
:1002E000000083EA010180EA020281EA0303362D5D
:1002F00088BF30BD11F0004F4FEA01314FF4801C30
:100300004CEA113102D0404261EB410113F0004F41
:100310004FEA03334CEA133302D0524263EB4303F8
:1003200094EA050F00F0A780A4F10104D5F1200E96
:100330000DDB02FA0EFC22FA05F2801841F10001F1
:1003400003FA0EF2801843FA05F359410EE0A5F1C5
:1003500020050EF1200E012A03FA0EFC28BF4CF0F6
:10036000020C43FA05F3C01851EBE37101F00045AC
:1003700007D54FF0000EDCF1000C7EEB00006EEBB9
:100380000101B1F5801F1BD3B1F5001F0CD3490843
:100390005FEA30004FEA3C0C04F101044FEA44529A
:1003A00012F5800F80F09A80BCF1004F08BF5FEA21
:1003B000500C50F1000041EB045141EA050130BD01
:1003C0005FEA4C0C404141EB0101013C28BFB1F513
:1003D000801FE9D291F0000F04BF01460020B1FA5E
:1003E00081F308BF2033A3F10B03B3F120020CDA31
:1003F0000C3208DD02F1140CC2F10C0201FA0CF00F
:1004000021FA02F10CE002F11402D8BFC2F1200C73
:1004100001FA02F120FA0CFCDCBF41EA0C01904029
:10042000E41AA2BF01EB0451294330BD6FEA040472
:100430001F3C1CDA0C340EDC04F11404C4F120025D
:1004400020FA04F001FA02F340EA030021FA04F36F
:1004500045EA030130BDC4F10C04C4F1200220FAC6
:1004600002F001FA04F340EA0300294630BD21FA04
:1004700004F0294630BD94F0000F83F4801306BFCA
:1004800081F480110134013D4EE77FEA645C18BFBE
:100490007FEA655C29D094EA050F08BF90EA020F55
:1004A00005D054EA000C04BF1946104630BD91EA4D
:1004B000030F1EBF0021002030BD5FEA545C05D150
:1004C0004000494128BF41F0004130BD14F580048F
:1004D0003CBF01F5801130BD01F0004545F0FE4103
:1004E00041F470014FF0000030BD7FEA645C1ABF38
:1004F000194610467FEA655C1CBF0B46024650EA6F
:10050000013406BF52EA033591EA030F41F400219A
:1005100030BD00BF90F0000F04BF0021704730B520
:100520004FF4806404F132044FF000054FF00001F5
:1005300050E700BF90F0000F04BF0021704730B5B6
:100540004FF4806404F1320410F0004548BF40428B
:100550004FF000013EE700BF42004FEAE2014FEAE0
:1005600031014FEA02701FBF12F07F4393F07F4FBB
:1005700081F06051704732F07F4208BF704793F0BE
:100580007F4F04BF41F40021704730B54FF46074D1
:1005900001F0004521F000411CE700BF50EA0102D4
:1005A00008BF704730B54FF000050AE050EA01027D
:1005B00008BF704730B511F0004502D5404261EBED
:1005C00041014FF4806404F132045FEA915C3FF42E
:1005D000D8AE4FF003025FEADC0C18BF03325FEACB
:1005E000DC0C18BF033202EBDC02C2F1200300FA7C
:1005F00003FC20FA02F001FA03FE40EA0E0021FAA1
:1006000002F11444BDE600BF70B54FF0FF0C4CF48E
:10061000E06C1CEA11541DBF1CEA135594EA0C0F40
:1006200095EA0C0F00F0DEF82C4481EA030621EA7B
:100630004C5123EA4C5350EA013518BF52EA0335B6
:1006400041F4801143F4801338D0A0FB02CE4FF068
:100650000005E1FB02E506F00042E0FB03E54FF098
:100660000006E1FB03569CF0000F18BF4EF0010E90
:10067000A4F1FF04B6F5007F64F5407404D25FEA8C
:100680004E0E6D4146EB060642EAC62141EA55513F
:100690004FEAC52040EA5E504FEACE2EB4F1FD0C81
:1006A00088BFBCF5E06F1ED8BEF1004F08BF5FEAFF
:1006B000500E50F1000041EB045170BD06F00046B1
:1006C00046EA010140EA020081EA0301B4EB5C045E
:1006D000C2BFD4EB0C0541EA045170BD41F4801156
:1006E0004FF0000E013C00F3AB8014F1360FDEBF7B
:1006F000002001F0004170BDC4F10004203C35DA57
:100700000C341BDC04F11404C4F1200500FA05F3D9
:1007100020FA04F001FA05F240EA020001F000427A
:1007200021F0004110EBD37021FA04F642EB0601F0
:100730005EEA430E08BF20EAD37070BDC4F10C041A
:10074000C4F1200500FA04F320FA05F001FA04F2DE
:1007500040EA020001F0004110EBD37041F10001CA
:100760005EEA430E08BF20EAD37070BDC4F12005D5
:1007700000FA05F24EEA020E20FA04F301FA05F23D
:1007800043EA020321FA04F001F0004121FA04F2E5
:1007900020EA020000EBD3705EEA430E08BF20EAB5
:1007A000D37070BD94F0000F0FD101F000464000EF
:1007B00041EB010111F4801F08BF013CF7D041EA71
:1007C000060195F0000F18BF704703F00046520075
:1007D00043EB030313F4801F08BF013DF7D043EA46
:1007E0000603704794EA0C0F0CEA135518BF95EAFC
:1007F0000C0F0CD050EA410618BF52EA4306D1D183
:1008000081EA030101F000414FF0000070BD50EAA1
:10081000410606BF1046194652EA430619D094EA2B
:100820000C0F02D150EA013613D195EA0C0F05D115
:1008300052EA03361CBF104619460AD181EA030169
:1008400001F0004141F0FE4141F470014FF0000021
:1008500070BD41F0FE4141F4780170BD70B54FF0BC
:10086000FF0C4CF4E06C1CEA11541DBF1CEA13553C
:1008700094EA0C0F95EA0C0F00F0A7F8A4EB05041E
:1008800081EA030E52EA03354FEA013100F0888015
:100890004FEA03334FF0805545EA131343EA1263DE
:1008A0004FEA022245EA111545EA10654FEA002693
:1008B0000EF000419D4208BF964244F1FD0404F54C
:1008C000407402D25B084FEA3202B61A65EB0305A8
:1008D0005B084FEA32024FF480104FF4002CB6EB65
:1008E000020E75EB030E22BFB61A754640EA0C00E5
:1008F0005B084FEA3202B6EB020E75EB030E22BF25
:10090000B61A754640EA5C005B084FEA3202B6EB65
:10091000020E75EB030E22BFB61A754640EA9C0024
:100920005B084FEA3202B6EB020E75EB030E22BFF4
:10093000B61A754640EADC0055EA060E18D04FEAB2
:10094000051545EA16754FEA06164FEAC30343EA52
:1009500052734FEAC2025FEA1C1CC0D111F4801F1F
:100960000BD141EA00014FF000004FF0004CB6E718
:1009700011F4801F04BF01430020B4F1FD0C88BFB7
:10098000BCF5E06F3FF6AFAEB5EB030C04BFB6EBC2
:10099000020C5FEA500C50F1000041EB045170BDB5
:1009A0000EF0004E4EEA113114EB5C04C2BFD4EBE2
:1009B0000C0541EA045170BD41F480114FF0000E66
:1009C000013C90E645EA060E8DE60CEA135594EAE2
:1009D0000C0F08BF95EA0C0F3FF43BAF94EA0C0FE5
:1009E0000AD150EA01347FF434AF95EA0C0F7FF45A
:1009F00025AF104619462CE795EA0C0F06D152EAAE
:100A000003353FF4FDAE1046194622E750EA410691
:100A100018BF52EA43067FF4C5AE50EA41047FF4A2
:100A20000DAF52EA43057FF4EBAE12E74FF0FF3C07
:100A300006E000BF4FF0010C02E000BF4FF0010CD8
:100A40004DF804CD4FEA410C7FEA6C5C4FEA430C51
:100A500018BF7FEA6C5C1BD001B050EA410C0CBFA0
:100A600052EA430C91EA030F02BF90EA020F002002
:100A7000704710F1000F91EA030F58BF994208BF69
:100A800090422CBFD8176FEAE37040F00100704726
:100A90004FEA410C7FEA6C5C02D150EA013C07D17D
:100AA0004FEA430C7FEA6C5CD6D152EA033CD3D0C8
:100AB0005DF8040B704700BF8446104662468C46C2
:100AC0001946634600E000BF01B5FFF7B7FF0028F5
:100AD00048BF10F1000F01BD4DF808EDFFF7F4FF1E
:100AE0000CBF012000205DF808FB00BF4DF808EDA9
:100AF000FFF7EAFF34BF012000205DF808FB00BFCC
:100B00004DF808EDFFF7E0FF94BF012000205DF8ED
:100B100008FB00BF4DF808EDFFF7CEFF94BF0120A2
:100B200000205DF808FB00BF4DF808EDFFF7C4FF9B
:100B300034BF012000205DF808FB00BF4FEA410CE4
:100B40007FEA6C5C02D150EA013C0AD14FEA430CC7
:100B50007FEA6C5C02D152EA033C02D14FF0000004
:100B600070474FF0010070474FEA410212F5001242
:100B700015D211D56FF47873B3EB625212D94FEAE4
:100B8000C12343F0004343EA505311F0004F23FACE
:100B900002F018BF404270474FF00000704750EA23
:100BA000013005D111F0004008BF6FF000407047E0
:100BB0004FF00000704700BF53B94AB9002908BF81
:100BC00000281CBF4FF0FF314FF0FF3000F088B914
:100BD000ADF1080C6DE904CE00F006F8DDF804E094
:100BE000DDE9022304B070472DE9F047089D0F4668
:100BF00004468C46002B48D18A42164661D9B2FA87
:100C000082F34BB1C3F1200201FA03FC20FA02F295
:100C10009E4042EA0C0C9C404FEA164EB7B2BCFB19
:100C2000FEF1220C0EFB11CC42EA0C4201FB07F054
:100C3000904209D9B21801F1FF3C80F0EE80904259
:100C400040F2EB8002393244121AA4B2B2FBFEF039
:100C50000EFB102244EA024400FB07F7A74209D921
:100C6000341900F1FF3280F0DA80A74240F2D780D9
:100C70003444023840EA0140E41B00211DB1DC404D
:100C80000023C5E90043BDE8F0878B4206D90DB1CA
:100C9000C5E9000100210846BDE8F087B3FA83F1F9
:100CA000002948D1BB4202D3824200F20781841A54
:100CB00067EB030201209446002DE4D0C5E9004C07
:100CC000E1E7002A00F09280B2FA82F3002B40F0B4
:100CD000A8808A1A4FEA164E1FFA86FC0121200CC2
:100CE000B2FBFEF70EFB172240EA02420CFB07F0B4
:100CF000904207D9B21807F1FF3802D2904200F2B1
:100D0000E2804746121AA4B2B2FBFEF00EFB10229C
:100D100044EA02440CFB00FCA44507D9341900F155
:100D2000FF3202D2A44500F2CB801046A4EB0C04A3
:100D300040EA0740A2E7C1F120068B4022FA06FCF8
:100D40004CEA030C07FA01F420FA06F3F7404FEAE5
:100D50001C49234300FA01F81FFA8CFEB7FBF9F097
:100D60001C0C09FB107744EA074400FB0EF7A7426E
:100D700002FA01F20AD91CEB040400F1FF3A80F0F8
:100D80009B80A74240F2988002386444E41B9FB2E3
:100D9000B4FBF9F309FB134447EA044403FB0EFEDA
:100DA000A64509D91CEB040403F1FF3780F08280CB
:100DB000A6457FD9023B644443EA0040A4EB0E04FD
:100DC000A0FB02E7BC427346B94663D360D05DB175
:100DD000B8EB030264EB090404FA06F622FA01F305
:100DE0001E43CC40C5E9006400214CE76208480876
:100DF00042EAC1710B0C43EA00438AB242EA034261
:100E0000B3FBF6F1E407B4463746B6461F23B0FB02
:100E1000F6F0D21B41EA004161E7614614E7104653
:100E200028E7C3F1200120FA01F29E4027FA01F1E0
:100E30009F403A434FEA164E1FFA86FCB1FBFEF77D
:100E40000EFB1710110C41EA004107FB0CF8884516
:100E500004FA03F43AD9711807F1FF3001D288453A
:100E60001FD8A1EB0801B1FBFEF808FB0CF70EFB45
:100E7000181192B242EA0142BA422FD2B21808F1D6
:100E8000FF31C6D2BA42C4D2A8F102013244C0E74F
:100E9000F0459CD2BEEB020367EB0C070138B94664
:100EA00095E7A6EB08084144B81EB1FBFEF808FB25
:100EB0000CF7DCE73B467FE7504667E70846FBE672
:100EC0003444023832E7023F32441BE7A1EB080109
:100ED0003846B1FBFEF808FB0CF7C8E7414698E737
:100EE000704700BF80B483B000AF78607B681B6838
:100EF00018460C37BD465DF8047B704780B483B05C
:100F000000AF78607B680022A3F804217B68002290
:100F100083F8C42000BF0C37BD465DF8047B7047E2
:100F200080B586B002AF78607B68B3F80431002BDF
:100F300000F0A9807B68B3F804311A467B6813443B
:100F4000002283F8C420FF233B730023FB73FB7B49
:100F5000BB73BB7B7B737B68C43307224C49184649
:100F600008F049FF0346002B02D101233B7363E0E5
:100F70007B68C43308224749184608F03CFF034603
:100F8000002B02D102233B7356E07B68C433072257
:100F90004149184608F02FFF0346002B02D10323D6
:100FA0003B7349E07B68C43308223C49184608F08B
:100FB00022FF0346002B02D104233B733CE07B68F5
:100FC000C4330B223649184608F015FF0346002BA0
:100FD00002D105233B732FE07B68C4330C223149D7
:100FE000184608F008FF0346002B02D106233B7386
:100FF00022E07B68C43308222B49184608F0FBFE28
:101000000346002B18D17B6803F1C40007F10C03E1
:10101000991C07F10C035A1C07F10C0303330093CE
:101020000B46224908F022FE0346032B02D1072378
:101030003B7301E0FF233B737B68D3F80831002B3F
:101040000DD03B7BFF2B0AD07B68D3F808317A6840
:10105000D2F80C1107F10C02104698470FE03B7BC9
:10106000FF2B0CD17B68D3F814315A1C7B68C3F872
:1010700014217B68C43319460D4800F0E5FE7868FA
:10108000FFF73CFF00E000BF1037BD4680BD00BF4A
:10109000E0C80008E8C80008F4C80008FCC8000858
:1010A00008C9000814C9000824C9000830C900088C
:1010B00048C9000880B584B000AFF860B9607A60B4
:1010C0003B60FB68002B02D0BB68002B01D10123E1
:1010D0002DE0FB68BA681A60FB687A68C3F80821DB
:1010E000FB683A68C3F80C21FB680022C3F81021A2
:1010F000FB680022C3F81421FB68012283F8182141
:10110000F868FFF7FBFEFB68002283F80621F86809
:10111000FFF7E8FE03461B68DA6842F02002DA6057
:10112000054AFB681360054800F08EFE0023184650
:101130001037BD4680BD00BFFC01002064C9000817
:101140002DE9F04FB9B00EAFF861B9617A61FB7467
:10115000FB69002B07D0FB6993F8183183F001037A
:10116000DBB2002B01D00123A2E0BB69002B57D0DA
:1011700000F0F8FE0346514AA2FB03239B09BB6023
:10118000BB691B681846FFF7E7F904460D46BB69C3
:101190005B681846FFF7E0F980468946BB69DB6863
:1011A0001846FFF7D9F982468B46BB699B681846FB
:1011B000FFF7D2F9C7E90001BB691B691846FFF7C1
:1011C000CBF97B69002B03D07B691B781A4601E0C1
:1011D0004FF0FF327B69002B03D07B695B78FB60AB
:1011E00002E04FF0FF33FB60FB7C07F124060C9319
:1011F000FB680B930A92CDE9080197ED007B8DED1A
:10120000067BCDE904ABCDE90289CDE90045BB6899
:101210002B4A8021304608F0F3FCC7F8A40025E0F3
:1012200000F0A0FE0346254AA2FB03239A097B692E
:10123000002B03D07B691B78194601E04FF0FF318A
:101240007B69002B03D07B695B781C4601E04FF083
:10125000FF34FB7C07F124000293019400911346B4
:10126000184A802108F0CCFCC7F8A400D7F8A430B5
:10127000002B03DBD7F8A4307F2B01D9012317E023
:10128000F869FFF72FFED7F8A4309AB207F12401CE
:10129000642306F0B7FE0346002B01D0052307E0C8
:1012A000FB69D3F810315A1CFB69C3F810210023E5
:1012B0001846AC37BD46BDE8F08F00BFD34D621075
:1012C0007CC90008A4C9000880B582B000AF78606E
:1012D0007B68002B1AD07B6893F8183183F00103E8
:1012E000DBB2002B12D17B68B3F80431002B0ED097
:1012F0007B68B3F80431013B7A68134493F8C43037
:101300000A2B04D17868FFF70BFE00E000BF083716
:10131000BD4680BD80B582B000AF78600B46FB70E3
:101320001346BB707B685B68BA78F978184607F09B
:1013300061FC00BF0837BD4680BD000080B584B0A9
:1013400000AFF860B9601346FB71FB68002B12D048
:10135000BB68002B0FD0BB681B68002B0BD0BB6891
:101360005B68002B07D0BB689B68002B03D0BB6871
:10137000DB68002B01D101231EE0FB681022B96855
:10138000184608F0C2FDFB68FA791A74FB6800225F
:101390001A62FB6800221A75FB6800229A61FB68DA
:1013A00000221A77FB68012283F82420FB79194672
:1013B000034800F049FD002318461037BD4680BDA4
:1013C000CCC9000880B58AB000AF78607B68002B7C
:1013D00000F04B817B6893F8243083F00103DBB28B
:1013E000002B40F0428100F0BDFD38627B681B6A33
:1013F0003A6AD31A41F28732934240F238817B68CD
:101400003A6A1A627B681B6807F11C02114618468B
:1014100007F0B6FE0346002B03D0984800F014FDF9
:1014200028E17B68DB6807F118021146184607F0CF
:10143000D5FC0346002B03D0914800F005FD19E1CF
:10144000002387F82730002387F826307B681B7C31
:10145000012B00F00E81002387F82530FB69D3EDC6
:10146000007A9FED887AF4EEC77AF1EE10FA16DD75
:10147000FB69D3ED037A9FED847AF4EEC77AF1EE3F
:1014800010FA0CDDFB69D3ED017A9FED807AF4EE62
:10149000C77AF1EE10FA02D5012387F8253097F8C4
:1014A0002530002B18D07B6801221A75784B1B78E9
:1014B00083F00103DBB2002B0AD07B685868754BC0
:1014C00047F23052012107F0C0FB714B01221A7024
:1014D000002387F827300CE07B6800221A756C4BDC
:1014E00000221A707B685B6800220121184607F011
:1014F00081FB97F8253083F00103DBB2002B68D025
:101500007B681B7C002B3AD1FB69D3ED027A9FEDFF
:10151000627AF4EEC77AF1EE10FA03D5012387F868
:1015200027300CE0FB69D3ED027A9FED5C7AF4EE94
:10153000C77AF1EE10FA02DD002387F827307B68C6
:101540005B6807F117020021184607F0B8FBFB693A
:10155000D3ED027A9FED507AF4EEC77AF1EE10FAED
:101560002CDBFB69D3ED027A9FED4C7AF4EEC77A5F
:10157000F1EE10FA22D8FB7D87F827301EE07B6859
:101580001B7C022B1AD17B68DB6807F11002114625
:10159000184607F053FC7B689B6807F1100207F1BF
:1015A0001801184600F01CFB0346002B03D0012352
:1015B00087F8273002E0002387F827307B68DB6854
:1015C000184607F0A2FC0346002B02D0002387F840
:1015D000273097F8253083F00103DBB2002B2ED0A3
:1015E0007B681B7C002B03D07B681B7C022B26D1E5
:1015F000FB69D3ED017A9FED257AF4EEC77AF1EE1F
:1016000010FA03D5012387F8263018E0FB69D3EDE3
:10161000017A9FED227AF4EEC77AF1EE10FA03DD3B
:10162000002387F826300AE07B685B6807F10F0229
:101630000121184607F043FBFB7B87F8263097F81B
:1016400027301A4600217868FFF764FE97F82530A6
:1016500083F00103DBB2002B0CD097F826301A463A
:1016600001217868FFF756FE04E000BF02E000BFEA
:1016700000E000BF2837BD4680BD00BFF4C90008A8
:1016800018CA000800000C4200401C4600004842F6
:1016900000020020E09304000000204200008C4281
:1016A00080B582B000AF78600B46FB707B68002B82
:1016B00007D07B6893F8243083F00103DBB2002B62
:1016C00001D0012308E07B68FA781A74FB78194688
:1016D000034800F0B9FB002318460837BD4680BD1B
:1016E00038CA000880B483B000AF786039607B6886
:1016F000002B0AD03B68002B07D07B6893F824307E
:1017000083F00103DBB2002B01D0012304E07B68EE
:101710001A7C3B681A70002318460C37BD465DF8EA
:10172000047B704780B582B000AF78600B46FB70D9
:101730001346BB707B68002B0BD07B6893F824307A
:1017400083F00103DBB2002B03D17B681B7C012BF0
:1017500001D0012307E07B685B68BA78F978184606
:1017600007F048FA034618460837BD4680BD00001A
:1017700080B582B000AF03463A60FB710B46BB7187
:10178000FB799BB2BA7992B21146184602F0DAFEA2
:10179000054B1B6801221946386802F06DFF00BF37
:1017A0000837BD4680BD00BF0000002080B500AFF7
:1017B000002002F05DFE00BF80BD80B500AF02F0EA
:1017C00005FE00BF80BD000080B584B000AFF860AA
:1017D000B9607A60FB68002B01D1012312E0FB683D
:1017E0007A685A61FB6800229A61FB6801221A77C5
:1017F00002F09CFCFFF7DAFFFFF7DFFF034800F081
:1018000023FB002318461037BD4680BD74CA00086C
:10181000B0B5B2B004AFF860B9607A60FB70FB6835
:10182000002B00F01481FB681B7F83F00103DBB207
:10183000002B40F00C8100F095FBC7F8B000FB686E
:101840009B69D7F8B020D21AFB685B699A42C0F056
:101850000081FB68D7F8B0209A61FFF7A7FFD7F89F
:10186000C830002B14D0D7F8C8301B781946D7F8E9
:10187000C8305B781A46D7F8C8309B7807F19000DB
:10188000019300920B46754A202108F0B9F905E052
:1018900007F19003724A07CA03C31A70FB78022B40
:1018A0000ED0022B10DC002B02D0012B04D00BE059
:1018B0006C4BC7F8B4300BE06B4BC7F8B43007E0A3
:1018C0006A4BC7F8B43003E0694BC7F8B43000BFC7
:1018D00007F19003D7F8B410184608F07DFA07F125
:1018E00090031A4600210020FFF742FFBB68002B3F
:1018F00018D0BB681B681846FEF72EFE04460D463E
:10190000BB685B681846FEF727FE02460B4607F1E8
:101910007000CDE90223CDE90045564A202108F0A8
:101920006FF907E007F17003534A1C4613460FCBCB
:1019300084E80F0007F170031A460A210020FFF720
:1019400017FFBB68002B0FD0BB68DB681846FEF79B
:1019500003FE02460B4607F15000CDE90023474A3B
:10196000202108F04DF905E007F15003444A07CA69
:1019700003C31A8007F150031A4614210020FFF711
:10198000F7FEBB68002B0FD0BB689B681846FEF7BC
:10199000E3FD02460B4607F13000CDE90023394A4A
:1019A000202108F02DF905E007F13003364A07CA77
:1019B00003C31A8007F130031A461E210020FFF7E7
:1019C000D7FE7B68002B16D07B681B78012B01D1DA
:1019D0002E4A00E02E4A7B685B78012B01D12B4B0D
:1019E00000E02B4B07F1100000931346294A2021F9
:1019F00008F006F907E007F11003274A1C461346D2
:101A00000FCB84E80F0007F110031A4628210020AD
:101A1000FFF7AEFEBB68002B16D0BB681B7D002B0A
:101A200007D1BB685B7D002B03D1BB689B7D002B7E
:101A300005D01A4A36210020FFF79AFE04E0184A22
:101A400036210020FFF794FEFFF7B7FE02E000BF4B
:101A500000E000BFB837BD46B0BD00BF98CA00085F
:101A6000ACCA0008B8CA0008C0CA0008C4CA000846
:101A7000C8CA0008CCCA0008E0CA0008F0CA0008BA
:101A8000FCCA000808CB000814CB000820CB0008D3
:101A900024CB000828CB000838CB000848CB00082E
:101AA00054CB000880B582B000AF78607B68002B13
:101AB00015D07B681B7F83F00103DBB2002B0ED1B6
:101AC000FFF774FE084A14211420FFF751FE074A5D
:101AD00023211920FFF74CFEFFF76FFE00E000BF47
:101AE0000837BD4680BD00BF5CCB000868CB00084E
:101AF00080B485B000AF03460A46FB711346BB7144
:101B0000FB79002B02D0FB79072B01D900230EE0D3
:101B1000FB79013B012202FA03F3FB73BA79FB7BE9
:101B20001340DBB2002B14BF01230023DBB21846A5
:101B30001437BD465DF8047B7047000080B586B061
:101B400000AFF860B9601346FB71FB68002B08D04A
:101B5000BB68002B05D0FB79002B02D0FB79082B4A
:101B600001D9012336E0FB68BA681A60FB68FA798C
:101B70001A71FB6801225A77FB6801229A770023C9
:101B8000FB751DE0FA7DF96813465B0013440B44B6
:101B9000053300221A70FA7DF96813465B0013447E
:101BA0000B44063300221A70FA7DF96813465B0075
:101BB00013440B44073300221A70FB7D0133FB757D
:101BC000FA7DFB799A42DDD3FB791946034800F090
:101BD0003BF9002318461837BD4680BD78CB000876
:101BE00080B58AB000AFF860B9607A60FB68002BFE
:101BF00013D0FB689B7F83F00103DBB2002B0CD179
:101C0000FB685B7F83F00103DBB2002B05D1BB686F
:101C1000002B02D07B68002B01D10023A9E0002318
:101C200087F827309DE0FB681A6897F827309B00FB
:101C300013443B627B68DA783B6ADB7819461046CE
:101C4000FFF756FF034683F00103DBB2002B7ED182
:101C50003B6A1B781A464FF4616303FB02F23B6A4E
:101C60005B7819460B461B015B1A9B001344FB6112
:101C7000B86807F075F9B8613B6A9B781A46FB694A
:101C800013447B617B693D4A934213D8BA69FB696F
:101C90009A4205D3BA697B699A4201D2012300E0D6
:101CA000002387F8263097F8263003F0010387F8E1
:101CB000263016E0BA69FB699A4207D27B69A3F520
:101CC000A833A3F5C073BA699A4201D2012300E098
:101CD000002387F8263097F8263003F0010387F8B1
:101CE000263097F8263083F00103DBB2002B30D189
:101CF00097F82720F96813465B0013440B4405331B
:101D00001B78002B27D197F82720F96813465B0032
:101D100013440B44053301221A7097F82720BB683F
:101D20001878F96813465B0013440B4406330246E7
:101D30001A7097F82720BB685878F96813465B003B
:101D400013440B44073302461A70012311E000BF0D
:101D500002E000BF00E000BF97F82730013387F8AA
:101D60002730FB681B7997F827209A42FFF45BAF76
:101D7000002318462837BD4680BD00BF80510100B2
:101D800080B485B000AF78607B68002B1BD07B6887
:101D90009B7F83F00103DBB2002B14D10023FB7384
:101DA0000BE0FA7B796813465B0013440B44053360
:101DB00000221A70FB7B0133FB737B681B79FA7B73
:101DC0009A42EED300E000BF1437BD465DF8047BB5
:101DD000704780B483B000AF78604FF06043D3F8B1
:101DE000803E03F00103002B13D04FF06043D3F883
:101DF000003E03F00103002B0BD000E000BF4FF0CA
:101E000060431B68002BF9D04FF060437A68D2B270
:101E10001A707B6818460C37BD465DF8047B704726
:101E200080B582B000AF78607B681846FFF7D1FFBD
:101E30007B6818460837BD4680BD80B400AF00BF40
:101E4000BD465DF8047B70470FB480B584B000AF29
:101E5000BB69002B28D007F11C037B607B68BA6943
:101E60008021154807F0A2FFB860BB68002B1CDD7D
:101E7000BB687F2B03D9104B002283F87F200023FF
:101E8000FB6009E00C4AFB6813441B781846FFF717
:101E9000C7FFFB680133FB600748FEF7F1F9024614
:101EA000FB689342EED300E000BF1037BD46BDE8AB
:101EB000804004B0704700BF0402002080B500AF2E
:101EC00001F050F8104B1B68104AA2FB03239B093A
:101ED0000F4A13600C4B1B680E4AA2FB03239B0C9A
:101EE0000D4A13600D4BDB680C4A43F08073D360DE
:101EF0000B4B00225A600A4B1B68094A43F001034E
:101F0000136000BF80BD00BF04000020D34D6210ED
:101F10008402002083DE1B4388020020F0ED00E0F5
:101F2000001000E080B400AF034B5B681846BD466C
:101F30005DF8047B704700BF001000E080B500AF83
:101F4000074B1B68002B01D1002306E0FFF7EAFFD7
:101F50000246034B1B68B2FBF3F3184680BD00BF7B
:101F60008802002080B500AF074B1B68002B01D111
:101F7000002306E0FFF7D6FF0246034B1B68B2FBC7
:101F8000F3F3184680BD00BF8402002080B584B002
:101F900000AF78600D4B1B68002B12D00B4B1A68FA
:101FA0007B6802FB03F3FB60FFF7BCFFB86000BF78
:101FB000FFF7B8FF0246BB68D31AFA689A42F7D80F
:101FC00000E000BF1037BD4680BD00BF8802002082
:101FD00080B584B000AF78600D4B1B68002B12D029
:101FE0000B4B1A687B6802FB03F3FB60FFF79AFF59
:101FF000B86000BFFFF796FF0246BB68D31AFA68C5
:102000009A42F7D800E000BF1037BD4680BD00BF40
:102010008402002080B584B000AF3B4600221A60E5
:102020005A609A60DA60214B214A1A601F4B4FF4C4
:1020300080325A601D4B00229A601C4B00221A61AC
:102040001A4B00221A76194B002283F82020174BD6
:102050000022DA62154B174A9A62144B0022DA60AA
:10206000124B0122DA61114B002283F830200F4B12
:1020700001225A610D4802F059FC0346002B01D0A1
:1020800000F096FD01233B6001237B600023BB60D1
:102090003B461946054802F00DFE0346002B01D0D1
:1020A00000F086FD00BF1037BD4680BD8C020020C9
:1020B000002001400100000F80B58AB000AF7860B9
:1020C00007F1140300221A605A609A60DA601A61FC
:1020D0007B681B682E4A934256D100233B612D4BEF
:1020E0005B6C2C4A43F4807353642A4B5B6C03F49F
:1020F00080733B613B690023FB60264B1B6B254AC9
:1021000043F001031363234B1B6B03F00103FB60DC
:10211000FB6802237B610323BB610023FB6107F1A2
:10212000140319461C4803F0EFFB1C4B1C4A1A60B1
:102130001A4B00225A60194B00229A60174B00225A
:10214000DA60164B4FF480621A61144B4FF4006250
:102150005A61124B4FF400529A61104B0022DA611F
:102160000E4B00221A620D4B00225A620B4803F0FC
:10217000E1F80346002B01D000F01AFD7B68074A06
:102180009A63064A7B68936300BF2837BD4680BDCB
:10219000002001400038024000000240D40200202C
:1021A0001064024080B582B000AF00237B60174B03
:1021B0001B6B164A43F400131363144B1B6B03F49D
:1021C00000137B607B6800233B60104B1B6B0F4A46
:1021D00043F4800313630D4B1B6B03F480033B60DC
:1021E0003B6800220021102003F06DF8102003F05E
:1021F00086F800220021382003F065F8382003F02B
:102200007EF800BF0837BD4680BD00BF00380240E1
:1022100080B483B000AF786039607B683A689A61B7
:1022200000BF0C37BD465DF8047B704780B483B0B7
:1022300000AF786039603B681A047B689A6100BF20
:102240000C37BD465DF8047B7047000080B485B054
:1022500000AF7860084B1A6B07497B6813430B6328
:10226000054B1A6B7B681340FB60FB6800BF14379B
:10227000BD465DF8047B70470038024080B586B0EB
:1022800000AF3B4600221A605A609A60DA601A6119
:102290005A610420FFF7DAFF8020FFF7D7FF012003
:1022A000FFF7D4FF0220FFF7D1FF4FF400511E4883
:1022B000FFF7BCFF30211D48FFF7B8FF03211B4883
:1022C000FFF7A6FF4FF400533B6001237B60002320
:1022D000BB600023FB6000233B613B46194612486C
:1022E00006F097FB03233B6001237B600023BB6068
:1022F0000023FB6000233B613B4619460B4806F078
:1023000088FB30233B6001237B600023BB600123FB
:10231000FB6000233B613B461946044806F079FB0D
:1023200000BF1837BD4680BD0008024000040240CF
:1023300080B500AF124B134A1A60114B124A5A6013
:102340000F4B00229A600E4B0022DA600C4B4FF4C8
:1023500080421A610A4B00225A61094B00229A619D
:10236000074B0022DA61064B00221A62044803F090
:1023700081FC0346002B01D000F01AFC00BF80BD99
:102380003403002000540040A086010080B58AB0CC
:1023900000AF786007F1140300221A605A609A6057
:1023A000DA601A617B681B68194A93422BD10023BB
:1023B0003B61184B1B6B174A43F002031363154B29
:1023C0001B6B03F002033B613B69C0237B6112235B
:1023D000BB610023FB6103233B6204237B6207F1A3
:1023E000140319460C4803F08FFA0023FB60094BD5
:1023F0001B6C084A43F400131364064B1B6C03F474
:102400000013FB60FB6800BF2837BD4680BD00BFDE
:1024100000540040003802400004024080B485B0FF
:1024200000AF786039607B685B69FB60FA683B6885
:1024300013401A04FB68D9433B680B401A437B687E
:102440009A6100BF1437BD465DF8047B70470000F9
:10245000B0B5A0B002AF02F0D3F900F0B7F9FFF7C2
:102460000DFFFFF79FFEFFF7D5FDFFF761FF00F0BF
:10247000AFFB00F0EDFDFFF721FDFFF7DEFCA74805
:10248000FFF7E2FCA64A07F1600307CA83E80700EA
:1024900007F160031946A34801F004F80346002B36
:1024A00002D0A148FFF7D0FC102323229F49A04867
:1024B00000F042FF0346002B02D09E48FFF7C4FC09
:1024C0009D4A07F1580392E8030083E8030007F1EF
:1024D00058031946994801F0CDFC0346002B02D061
:1024E0009748FFF7B1FC974A07F1500392E80300C1
:1024F00083E80300944A07F1480392E8030083E865
:102500000300FB6C0093BB6C07F1500206CA8F48B6
:1025100001F0A5FD0346002B02D08D48FFF794FC87
:102520008C4B07F128041D460FCD0FC495E80F0012
:1025300084E80F0007F128031946874806F04EFD8E
:102540000346002B02D08548FFF77EFC00227F491E
:10255000834806F0F7FA0346002B02D08148FFF7C4
:1025600073FC8149814806F009FC0346002B02D028
:102570007F48FFF769FC04227E497F48FFF7DEFAB7
:102580000346002B02D07D48FFF75EFC7C4977486C
:1025900006F054FC7B4B07F118040FCB84E80F00C6
:1025A00007F11803002219467748FEF7C7FE0346D5
:1025B000002B02D07548FFF747FC754B00221A60CC
:1025C000734B744A5A60724B734A9A60704B002284
:1025D000DA606F4B714A1A6101F0A8FD0346002BC7
:1025E00002D06F48FFF730FC4FF4FA7268496D482B
:1025F000FFF7EAF80346002B02D06B48FFF724FCF4
:102600006848FFF74FFA0023684A69496948FEF7AE
:1026100051FD0346002B02D06748FFF715FC6748C1
:10262000FFF712FC00237B6700233B67FFF79AFC50
:10263000F866FA6E7B6FD31A41F28732934235D92E
:10264000FB6E7B67444806F0F9FC4F48FEF7BAFE84
:102650005B49434806F061FB5A49444806F0BEFB1B
:1026600007F114031946414806F0E8FB0346002B26
:102670001CD1BA7D424B9B789A4209D17A7D404B5E
:102680005B789A4204D13A7D3D4B1B789A420DD03B
:102690003948FFF775FB3A4A7B6913603B7D194661
:1026A0007B7D1A46BB7D4848FFF7CEFBFA6E3B6F39
:1026B000D31A092B04D9FB6E3B673E48FEF704FE94
:1026C00007F110031946244806F05AFD07F10F03DD
:1026D00019462D48FFF706F83969FB7B394A009205
:1026E000374A3048FFF794F8FA6E7B6FD31A312BD4
:1026F00010D807F108031946174806F041FDFB1DE5
:1027000019462148FEF7EEFFB968FB792C4A2948A3
:10271000FEF716FD642002F0E5F887E7A4CB000879
:1027200044CD000888030020C8CB000834030020F3
:10273000A8030020DCCB000850CD0008B003002027
:10274000F0CB000858CD000860CD0008C40300207D
:1027500008CC000868CD0008D80300201CCC000875
:102760002004002038CC0008F80500204C0400208C
:1027700054CC000814CF00085404002070CC00088A
:10278000F405002088CD00087404002090CC0008D7
:10279000D80500207144000879460008CD430008A0
:1027A000B0CC00089C040020C4CC0008812A00089A
:1027B0001C060020BC040020E4CC000800CD00086A
:1027C000EC050020F005002010CD000880B594B085
:1027D00000AF07F1200330220021184607F0F4FA79
:1027E00007F10C0300221A605A609A60DA601A61DD
:1027F0000023BB60284B1B6C274A43F080531364B3
:10280000254B1B6C03F08053BB60BB6800237B60CF
:10281000224B1B68214A43F4404313601F4B1B6843
:1028200003F440437B607B6805233B624FF48033B5
:102830007B620123BB620223BB634FF48003FB6313
:102840000C233B6460237B640223BB640423FB648E
:1028500007F12003184604F035FB0346002B01D096
:1028600000F0A6F90F23FB6002233B6100237B618C
:102870004FF48053BB610023FB6107F10C0303217C
:10288000184604F097FD0346002B01D000F090F9A4
:1028900000BF5037BD4680BD003802400070004088
:1028A00080B588B000AFF860B9607A60FB68002B33
:1028B00005D0BB68002B02D07B68002B01D103231D
:1028C00033E0FB68FB6107F114031946F86900F077
:1028D00099FE0346FB76FB7E002B1BD1B7F9163021
:1028E00007EE903AB8EEE77AF2EE046AC7EE267A7F
:1028F000BB68C3ED007AB7F9143007EE903AB8EE32
:10290000E77AF2EE046AC7EE267A7B68C3ED007AB6
:1029100000230AE0FB7E042B01D1012305E0FB7EAE
:10292000052B01D1022300E0032318462037BD46C2
:1029300080BD80B584B000AF786039607B68002BC3
:1029400002D03B68002B01D103230DE07B68FB60C4
:102950003968F86800F02DFD0346FB72FB7A002B06
:1029600001D1002300E0012318461037BD4680BD89
:1029700080B584B000AF786039607B68002B02D0EE
:102980003B68002B01D1032308E07B68FB603968BA
:10299000F86801F032FB0346FB72FB7A18461037E9
:1029A000BD4680BD80B586B000AF786039603B68B9
:1029B000002B01D1032359E02E4801F0FBFF6421D5
:1029C0002C4802F0DEF80346002B04D0294802F020
:1029D000A5F801234AE0274802F05EF9386125484E
:1029E00002F09CF840F6B833FB604FF47A73BB609A
:1029F0003A69FB689A4203D34FF000037B611CE005
:102A00003A69BB689A4202D81B4B7B6115E0FA68B1
:102A10003B69D31A07EE903AF8EE676AFA68BB682A
:102A2000D31A07EE903AB8EE677AC6EE877A9FED32
:102A3000137A67EE877AC7ED057AD7ED057AF5EE5A
:102A4000C07AF1EE10FA02D54FF000037B61D7EDAA
:102A5000057A9FED0A7AF4EEC77AF1EE10FA01DDFD
:102A6000054B7B613B687A691A600023184618376A
:102A7000BD4680BD8C0200200000C8420000C84254
:102A800080B584B000AF786039607B681B78013B0B
:102A9000062B70D801A252F823F000BFB92A000813
:102AA000D32A0008ED2A0008072B0008212B000874
:102AB000312B0008412B00083348FFF7C5F90121ED
:102AC0003248FEF7EDFD012200213048FEF72AFED4
:102AD00055E02F48FFF7B8F901212C48FEF7E0FD3B
:102AE000002200212948FEF71DFE48E02948FFF793
:102AF000ABF901212548FEF7D3FD0122012123482E
:102B0000FEF710FE3BE02448FFF79EF901211F4825
:102B1000FEF7C6FD002201211C48FEF703FE2EE051
:102B20001E48FFF791F900211848FEF7B9FD26E08D
:102B30001B48FFF789F901211448FEF7B1FD1EE09B
:102B40007B685B7819467B689B781A467B68DB78E4
:102B50001448FFF779F97B685B783B737B689B7857
:102B60007B737B68DB78BB7307F10C0319460E4857
:102B700006F097F903E00D48FFF766F900BF00BFC4
:102B80001037BD4680BD00BF98CD000874040020FA
:102B9000A8CD0008B8CD0008C8CD0008D8CD0008E1
:102BA000ECCD00080CCE00084C0400202CCE000810
:102BB00080B500AF72B600BF4FF400510348FFF775
:102BC0002DFCC82001F08EFE00BFF5E70008024092
:102BD00080B586B000AF3B1D00221A605A609A6033
:102BE000DA601A6100233B60244B254A1A60234BAC
:102BF00000225A60214B7F229A60204BFF22DA602C
:102C00001E4B00221A611D4B00225A611B4B0022F1
:102C10009A611A4804F09CFE0346002B01D0FFF78E
:102C2000C7FF11233B7152237B710023BB7100232B
:102C30003B6100237B613B1D012219460F4804F0D4
:102C400008FF0346002B01D0FFF7B2FF02233B70C1
:102C500001237B702323BB702623FB703B4601229C
:102C60001946064804F0EDFF0346002B01D0FFF79C
:102C70009FFF00BF1837BD4680BD00BFF80500208C
:102C80000028004080B588B000AF786007F10803E5
:102C900000221A605A609A60DA601A615A617B6891
:102CA0001B680C4A934211D10223BB604FF480731E
:102CB000BB6107F10803184604F05AFD0346002BD8
:102CC00001D0FFF775FF044B01221A6000BF2037C7
:102CD000BD4680BD002800403C0E474280B483B012
:102CE00000AF00237B60104B5B6C0F4A43F48043C2
:102CF00053640D4B5B6C03F480437B607B68002363
:102D00003B60094B1B6C084A43F080531364064B2D
:102D10001B6C03F080533B603B6800BF0C37BD4623
:102D20005DF8047B704700BF0038024080B400AFFC
:102D300000BFFDE780B400AF00BFFDE780B400AF87
:102D400000BFFDE780B400AF00BFFDE780B400AF77
:102D500000BFFDE780B400AF00BFBD465DF8047B57
:102D6000704780B400AF00BFBD465DF8047B70477C
:102D700080B400AF00BFBD465DF8047B704780B5EE
:102D800000AF01F08FFD00BF80BD000080B500AF37
:102D9000024802F07DFB00BF80BD00BF640600203A
:102DA00080B500AF024802F073FB00BF80BD00BFDA
:102DB000D402002080B400AF01231846BD465DF860
:102DC000047B704780B582B000AF7860396007F04F
:102DD0006FF8034616221A604FF0FF331846083783
:102DE000BD4680BD80B582B000AF78604FF0FF3146
:102DF0007868FFF7E7FF00BFFDE780B586B000AF5A
:102E0000F860B9607A6000237B610AE0AFF300806C
:102E10000146BB685A1CBA60CAB21A707B6901339A
:102E20007B617A697B689A42F0DB7B6818461837C9
:102E3000BD4680BD80B586B000AFF860B9607A60ED
:102E400000237B6109E0BB685A1CBA601B781846F6
:102E5000AFF300807B6901337B617A697B689A42BA
:102E6000F1DB7B6818461837BD4680BD80B483B05F
:102E700000AF78604FF0FF3318460C37BD465DF861
:102E8000047B704780B483B000AF786039603B68E2
:102E90004FF400525A60002318460C37BD465DF8C7
:102EA000047B704780B483B000AF7860012318467C
:102EB0000C37BD465DF8047B704780B485B000AF29
:102EC000F860B9607A60002318461437BD465DF893
:102ED000047B704780B586B000AF7860144A154B0C
:102EE000D31A7B617B693B61134B1B68002B02D1BA
:102EF000114B124A1A60104B1A687B6813443A69E6
:102F00009A4207D206F0D4FF03460C221A604FF013
:102F1000FF3309E0084B1B68FB60074B1A687B68AE
:102F20001344054A1360FB6818461837BD4680BD38
:102F3000000002200004000018060020200C0020E1
:102F400080B400AF064BD3F88830054A43F47003D1
:102F5000C2F8883000BFBD465DF8047B704700BFF3
:102F600000ED00E080B487B000AF344B9B6803F005
:102F70000C033B613B69082B11D03B69082B44D8FB
:102F80003B69002B03D03B69042B04D03DE02C4B64
:102F90002C4A1A603DE02A4B2B4A1A6039E0274B35
:102FA0005B689B0D03F00103FB60244B5B6803F03F
:102FB0003F03BB60FB68002B0CD0234ABB68B2FB0D
:102FC000F3F31E4A52689209C2F3080202FB03F3AC
:102FD0007B610BE01B4ABB68B2FBF3F3174A5268F4
:102FE0009209C2F3080202FB03F37B61134B5B6897
:102FF0001B0C03F0030301335B007B607A697B6881
:10300000B2FBF3F30E4A136003E00D4B0D4A1A6056
:1030100000BF0A4B9B681B0903F00F030B4AD35CEC
:103020003B61074B1A683B6922FA03F3044A1360B9
:1030300000BF1C37BD465DF8047B70470038024076
:10304000040000200024F40040787D0124CF000813
:1030500080B500AF114B124A1A60104B4FF4E132A9
:103060005A600E4B00229A600C4B0022DA600B4B28
:1030700000221A61094B0C225A61084B00229A6106
:10308000064B0022DA61054804F06CFF0346002B72
:1030900001D0FFF78DFD00BF80BD00BF1C060020E2
:1030A0000044004080B58AB000AF786007F1140397
:1030B00000221A605A609A60DA601A617B681B68A5
:1030C000304A934259D100233B612F4B1B6C2E4A4F
:1030D00043F4003313642C4B1B6C03F400333B614B
:1030E0003B690023FB60284B1B6B274A43F001031D
:1030F0001363254B1B6B03F00103FB60FB680C2380
:103100007B610223BB610023FB6103233B62072336
:103110007B6207F1140319461C4802F0F5FB1C4BB7
:103120001C4A1A601A4B4FF000625A60184B00227A
:103130009A60174B0022DA60154B4FF480621A61D7
:10314000134B00225A61124B00229A61104B00224D
:10315000DA610F4B00221A620D4B00225A620C48B2
:1031600002F0E8F80346002B01D0FFF721FD7B6851
:10317000074ADA63064A7B68936300BF2837BD4677
:1031800080BD00BF00440040003802400000024003
:103190006406002088600240DFF834D0FFF7D0FEDC
:1031A0000C480D490D4A002302E0D458C4500433A2
:1031B000C4188C42F9D30A4A0A4C002301E0136078
:1031C0000432A242FBD306F079FEFFF741F97047C3
:1031D0000000022000000020E00100204CDA00087E
:1031E000E00100201C0C0020FEE780B586B002AF95
:1031F00078600B46FB707B68002B03D07B681B68F4
:10320000002B01D1012323E07B6818687B681B79C0
:103210005B0099B2FA1C4FF0FF330093012302F0D8
:103220006DFE0346FB73FB7B002B01D100230FE0F7
:10323000FB7B012B01D103230AE0FB7B022B01D195
:10324000032305E0FB7B032B01D1032300E00323D1
:1032500018461037BD4680BD80B586B002AF786095
:1032600039607B68002B06D07B681B68002B02D07E
:103270003B68002B01D1012323E07B6818687B6841
:103280001B795B0099B24FF0FF33009302233A6839
:1032900002F032FF0346FB73FB7B002B01D10023BE
:1032A0000FE0FB7B012B01D104230AE0FB7B022B07
:1032B00001D1042305E0FB7B032B01D1042300E0B3
:1032C000042318461037BD4680BD000080B485B089
:1032D00000AF03460A46FB8013467B71154BBB606B
:1032E0007B79112B02D07B79212B0DD1FB8807EE46
:1032F000903AF8EE676AD7ED027A37EEA77AC6EE13
:10330000877AC7ED037A0AE0FB8807EE903AF8EE79
:10331000676A97ED027AC6EE877AC7ED037AFB6893
:1033200007EE903AB0EE670A1437BD465DF8047BAD
:10333000704700BF9A99993F80B586B000AFF8609A
:10334000B96011461A460B46FB711346BB71FB6808
:10335000002B02D0BB68002B01D1012325E0FB68C4
:10336000BA681A60FB68FA791A71FB68BA795A71FF
:10337000FB684522DA80F86800F082F80346FB75A6
:10338000FB7D002B01D0FB7D0FE00A20FEF720FE25
:10339000BB791946F86800F040F80346FB75FB7DE1
:1033A000002B01D0FB7D00E0002318461837BD46F6
:1033B00080BD80B584B000AF786039607B68002B39
:1033C00002D03B68002B01D1012322E007F1080362
:1033D00019467868FFF740FF0346FB73FB7B002B21
:1033E00001D0FB7B15E03B7A1BB21B021AB27B7A41
:1033F0001BB213431BB2BB817B685A79BB89114650
:103400001846FFF763FFF0EE407A3B68C3ED007AA1
:10341000002318461037BD4680BD80B584B000AF8C
:1034200078600B46FB707B68002B01D1012323E001
:10343000FB7819467868FFF7D8FE0346FB72FB7AE3
:10344000002B01D0FB7A17E0FB78102B08D0FB781B
:10345000112B05D0FB78202B02D0FB78212B02D139
:10346000B423FB6001E01823FB60F868FEF7B0FDB1
:103470007B68FA785A71002318461037BD4680BD24
:1034800080B582B000AF78607B68002B01D101234A
:1034900004E001217868FFF7A8FE034618460837C4
:1034A000BD4680BD80B483B000AF786039607B6872
:1034B000002B02D03B68002B01D1012318E03B68B0
:1034C0001B68002B01D1012312E07B683A6807CA10
:1034D00083E8070079684FF000024FF00003C1E96C
:1034E00004237B6800221A767B6801225A76002327
:1034F00018460C37BD465DF8047B704780B483B036
:1035000000AF0346FB71FB79002B02D14FF47A73B5
:1035100001E04FF4FA6318460C37BD465DF8047BB2
:1035200070472DE9F04F8DB000AF78617B69002BBB
:1035300003D07B695B7E002B01D100235DE07B69BA
:103540001B7E002B01D1012357E0FEF7F7FC034659
:103550000022BB60FA60D7E90223C7E90A237B692E
:10356000D3E90423D7E90A01861A3E6061EB03031D
:103570007B60D7E90023C7E908237B691B7A1846DB
:10358000FFF7BCFF034600229A46934652465B462D
:103590004FF000004FF00001590141EAD2615001A3
:1035A00002460B46B2EB0A0463EB0B054FF0000238
:1035B0004FF00003AB0043EA9473A20014461D468B
:1035C00014EB0A0845EB0B094FF000024FF0000323
:1035D0004FEAC90343EA58734FEAC8029046994636
:1035E000C7E90689D7E90801D7E90623904271EBBC
:1035F00003032CBF01230023DBB218463437BD463A
:10360000BDE8F08F80B584B000AF786039607B682A
:10361000002B02D03B68002B01D1012350E07B68D6
:103620005B7E002B01D102234AE07868FFF779FF27
:10363000034683F00103DBB2002B01D003233FE0FC
:10364000786800F084F800F070F87B68184600F0A5
:1036500016F90346FB73FB7B002B08D17B6807F14F
:1036600008021146184600F030F90346FB7300F0DB
:1036700065F8786800F023FAFB7B002B01D0FB7B18
:103680001EE007F10803184600F081F9034683F0B5
:103690000103DBB2002B01D0052311E07B681B7A0C
:1036A000002B06D107F108033968184600F093F99A
:1036B00005E007F108033968184600F0C7F9002350
:1036C00018461037BD4680BD80B582B000AF786027
:1036D0007B6818687B689B880022194602F0B0FA64
:1036E00000BF0837BD4680BD80B582B000AF7860AE
:1036F0007B6818687B689B880122194602F0A0FA53
:1037000000BF0837BD4680BD80B582B000AF78608D
:103710007B681A687B689B881946104602F078FA25
:10372000034618460837BD4680BD80B400AF72B668
:1037300000BF00BFBD465DF8047B704780B400AF9A
:1037400062B600BF00BFBD465DF8047B704780B520
:1037500084B000AF78607B681B7A002B01D1122304
:1037600000E00123FB607B681846FFF7ADFFF868B7
:10377000FEF72EFC7B681846FFF7B6FF1E20FEF70B
:1037800005FC00BF1037BD4680BD2DE9B04F8AB0A3
:1037900000AF78610B46FA60FB74FEF7CFFB03467F
:1037A00000223B607A60D7E90023C7E9082319E0CB
:1037B000FEF7C4FB034600221C461546D7E9082342
:1037C000B4EB020A65EB030BC7E906ABFB6800220A
:1037D00098469146D7E90623904579EB030301D239
:1037E000042308E07869FFF78FFF03461A46FB7C45
:1037F0009342DDD1002318462837BD46BDE8B08F7F
:103800002DE9B04F8AB000AF78613961FA60FEF7F8
:1038100095FB034600223B607A60D7E90023C7E9A5
:10382000082319E0FEF78AFB034600221C461546D2
:10383000D7E90823B4EB020A65EB030BC7E906AB33
:103840003B69002298469146D7E90623904579EBDB
:10385000030301D204230DE07869FFF755FF034607
:10386000012BDFD0FEF76AFB02463B6AD21AFB68E7
:103870001A60002318462837BD46BDE8B08F80B5D2
:1038800084B000AF7860962200217868FFF77DFF52
:103890000346FB73FB7B002B01D0FB7B11E09622E0
:1038A00001217868FFF771FF0346FB73FB7B002B58
:1038B00001D0FB7B05E0962200217868FFF765FFC9
:1038C000034618461037BD4680BD80B586B000AFB0
:1038D0007860396000233B6107E03A683B69134434
:1038E00000221A703B6901333B613B69042BF4D918
:1038F00000237B6143E0962200217868FFF745FFB3
:103900000346FB73FB7B002B01D0FB7B3BE0962245
:1039100001217868FFF739FF0346FB73FB7B002B1F
:1039200001D0FB7B2FE007F108031A469621786847
:10393000FFF766FF0346FB73FB7B002B01D0FB7B8D
:1039400021E07B69DB083B613A683B6913441A78E4
:1039500039683B690B445200D2B21A70BB68282BFD
:103960000AD93A683B6913441A7839683B690B44B1
:1039700042F00102D2B21A707B6901337B617B692C
:10398000272BB8D9002318461837BD4680BD80B410
:1039900085B000AF78607B681A787B6801331B784C
:1039A0001344DAB27B6802331B781344DAB27B68C3
:1039B00003331B781344FB737B6804331B78FA7B57
:1039C0009A420CBF01230023DBB218461437BD46D0
:1039D0005DF8047B704780B485B000AF78603960D3
:1039E0007B681B781A46920013445B009BB27A688E
:1039F0000132127813449BB21AB23B681A807B687A
:103A000002331B7803F07F039BB21A4692001344E3
:103A10005B009BB27A680332127813449BB2FB813D
:103A20007B6802331B785BB2002B06DAFB895B42B2
:103A30009BB21AB23B685A8002E03B68FA895A800E
:103A400000BF1437BD465DF8047B704780B485B075
:103A500000AF786039607B681B781BB21B021AB21A
:103A60007B6801331B781BB213431BB2FB81B7F990
:103A70000E203B681A807B6802331B781B029BB2C6
:103A800003F4FE439BB27A68033212781343BB817E
:103A90007B6802331B785BB2002B06DABB895B4282
:103AA0009BB21AB23B685A8003E0B7F90C203B681E
:103AB0005A8000BF1437BD465DF8047B7047B0B52F
:103AC00082B000AF7860FEF739FA034600221C4648
:103AD00015467B68C3E904457B6801221A7600BF5E
:103AE0000837BD46B0BD80B48BB000AFF860B96098
:103AF0007A60FB681A68BB687B617B6993FAA3F301
:103B00003B613B69BB61BB69002B01D1202303E012
:103B1000BB69B3FA83F3DBB25B00032101FA03F361
:103B2000DB431A40BB683B623B6A93FAA3F3FB6139
:103B3000FB697B627B6A002B01D1202303E07B6A57
:103B4000B3FA83F3DBB25B00796801FA03F31A433B
:103B5000FB681A6000BF2C37BD465DF8047B7047D8
:103B600080B485B000AFF860B9607A60FB685A68CD
:103B7000BB68DB431A40BB68796801FB03F31A4357
:103B8000FB685A6000BF1437BD465DF8047B704780
:103B900080B483B000AF786039607B681A693B6895
:103BA00013403A689A420CBF01230023DBB2184647
:103BB0000C37BD465DF8047B704780B483B000AF1E
:103BC000786039603B681A047B689A6100BF0C37E3
:103BD000BD465DF8047B704780B582B000AF786069
:103BE0007B6818687B685B6801221946FFF77BFFDA
:103BF0007B6818687B685B6800221946FFF7B0FF96
:103C00007B681A687B685B6819461046FFF7D5FF2A
:103C100000BF0837BD4680BD80B582B000AF786078
:103C20007B6818687B685B6800221946FFF75BFFBA
:103C300000BF0837BD4680BD80B582B000AF786058
:103C40007B681A687B685B6819461046FFF7A0FF1F
:103C50000346DBB218460837BD4680BD80B584B048
:103C600000AF78607868FFF7B7FF4FF4F070FEF7A9
:103C70008DF97868FFF7D0FF4620FEF787F978685E
:103C8000FFF7DAFF0346FB734FF4CD70FEF77EF9C2
:103C9000FB7B002B01D1002300E0032318461037E3
:103CA000BD4680BD80B582B000AF78600B46FB702A
:103CB000FB78002B0CD07868FFF78EFF0620FEF70C
:103CC00065F97868FFF7A8FF4020FEF75FF90BE081
:103CD0007868FFF781FF3C20FEF758F97868FFF716
:103CE0009BFF0420FEF752F900BF0837BD4680BD98
:103CF00080B584B000AF78600B46FB700023FB7387
:103D00000EE0FA78FB7B42FA03F3DBB203F0010327
:103D1000DBB219467868FFF7C5FFFB7B0133FB7305
:103D2000FB7B072BEDD900BF00BF1037BD4680BD20
:103D300080B584B000AF78607868FFF74DFF06204B
:103D4000FEF724F97868FFF767FF0920FEF71EF9F0
:103D50007868FFF771FF0346FB733720FEF716F90B
:103D6000FB7B18461037BD4680BD80B584B000AFE0
:103D700078600023FB730023BB7310E07868FFF7C3
:103D8000D7FF0346002B07D0BB7B012202FA03F3C7
:103D9000DAB2FB7B1343FB73BB7B0133BB73BB7B8F
:103DA000072BEBD9FB7B18461037BD4680BD80B48E
:103DB00085B000AF78600B46FB700023FB730023D7
:103DC000BB7325E0BB7B7A6813441B787B730023AD
:103DD0003B7317E0FA7B7B7B5340DBB203F00103BC
:103DE000FB72FB7B5B08FB73FB7A002B04D0FB7B35
:103DF00083F07303DB43FB737B7B5B087B733B7B51
:103E000001333B733B7B072BE4D9BB7B0133BB7393
:103E1000BA7BFB789A42D5D3FB7B18461437BD4654
:103E20005DF8047B7047000080B485B000AF786017
:103E30007B6801331B781BB21B021AB27B681B78AC
:103E40001BB213431BB2FB81FB89BB81B7F90C305A
:103E500007EE903AF8EEE77A9FED057A67EE877AFB
:103E6000B0EE670A1437BD465DF8047B704700BFAB
:103E70000000803D80B582B000AF786039607B681B
:103E8000002B06D03B68002B03D03B681B68002B3F
:103E900001D1012313E07B683A6892E8030083E8CC
:103EA00003007B6801221A727B68074ADA607B682C
:103EB00000221A747B681846FFF7AEFE00231846EE
:103EC0000837BD4680BD00BF00C079C480B584B04E
:103ED00000AF78607B68002B06D07B681B7A83F08C
:103EE0000103DBB2002B01D003231BE07B681846E3
:103EF000FFF7B4FE0346FB73FB7B002B04D07B680B
:103F0000FA7B1A74FB7B0DE07B68CC211846FFF727
:103F1000EFFE7B6844211846FFF7EAFE7B6800222B
:103F20001A74002318461037BD4680BD90B587B07F
:103F300000AF786039607B68002B09D03B68002BAC
:103F400006D07B681B7A83F00103DBB2002B01D023
:103F500003234EE07B681846FFF780FE0346BB75DF
:103F6000BB7D002B04D07B68BA7D1A74BB7D40E01A
:103F70007B68CC211846FFF7BBFE7B68BE21184644
:103F8000FFF7B6FE0023FB750EE07B68FC7D18464C
:103F9000FFF7EBFE03461A4604F118033B4403F80F
:103FA0000C2CFB7D0133FB75FB7D082BEDD907F154
:103FB0000C0308211846FFF7FAFE03461A463B7D1C
:103FC0009A4204D07B6802221A74022311E007F19E
:103FD0000C031846FFF728FFF0EE407A3B68C3ED6C
:103FE000007A3B681A687B68DA607B6800221A7482
:103FF000002318461C37BD4690BD80B584B000AF85
:10400000786039607B68002B02D03B68002B01D1BF
:10401000032312E07868FFF759FF0346FB73FB7B2D
:10402000002B01D0FB7B08E040F2EE20FDF7D0FF33
:1040300039687868FFF77AFF034618461037BD469F
:1040400080BD80B483B000AF786039607B683A6827
:104050009A6100BF0C37BD465DF8047B704782B0A3
:1040600080B584B000AFF860381D80E80600FB61C1
:10407000FB68002B01D1012324E0FB681A463B1D9D
:1040800093E8030082E80300FB68083307F11C0291
:1040900092E8030083E80300FB6800221A74FB68BF
:1040A00000225A74FB6801229A747B68BA68114630
:1040B0001846FFF7C6FFFB693A6A11461846FFF734
:1040C000C0FF002318461037BD46BDE8804002B04F
:1040D000704780B584B000AF78607B68002B21D03A
:1040E0007B689B7C83F00103DBB2002B1AD1002399
:1040F000FB7313E0FB7B7A68134400221A74FA7B8B
:104100007B6853F83200FB7B7A68DB0013445B6802
:104110001946FFF796FFFB7B0133FB73FB7B012BFB
:10412000E8D900E000BF1037BD4680BD80B582B041
:1041300000AF44F6206301227821A24802F00EFA73
:104140000346002B01D0022338E140F6C4137B6004
:1041500002E07B68013B7B607B68002BF9D1002388
:10416000FB70AE220021782000F0B0FA0346FB700D
:10417000FB78002B01D0FB7820E1B02200217820D1
:1041800000F0A4FA0346FB70FB78002B01D0FB780B
:1041900014E181220021782000F098FA0346FB7098
:1041A000FB78002B01D0FB7808E1FF22002178206A
:1041B00000F08CFA0346FB70FB78002B01D0FB78F3
:1041C000FCE0A1220021782000F080FA0346FB7079
:1041D000FB78002B01D0FB78F0E0A62200217820AC
:1041E00000F074FA0346FB70FB78002B01D0FB78DB
:1041F000E4E0A8220021782000F068FA0346FB7072
:10420000FB78002B01D0FB78D8E03F2200217820FA
:1042100000F05CFA0346FB70FB78002B01D0FB78C2
:10422000CCE0AD220021782000F050FA0346FB706C
:10423000FB78002B01D0FB78C0E08B220021782096
:1042400000F044FA0346FB70FB78002B01D0FB78AA
:10425000B4E032220021782000F038FA0346FB70E7
:10426000FB78002B01D0FB78A8E0C8220021782041
:1042700000F02CFA0346FB70FB78002B01D0FB7892
:104280009CE0D3220021782000F020FA0346FB7046
:10429000FB78002B01D0FB7890E0002200217820F1
:1042A00000F014FA0346FB70FB78002B01D0FB787A
:1042B00084E0D5220021782000F008FA0346FB7044
:1042C000FB78002B01D0FB7878E080220021782059
:1042D00000F0FCF90346FB70FB78002B01D0FB7863
:1042E0006CE0D9220021782000F0F0F90346FB7041
:1042F000FB78002B01D0FB7860E01F2200217820A2
:1043000000F0E4F90346FB70FB78002B01D0FB784A
:1043100054E0DA220021782000F0D8F90346FB703F
:10432000FB78002B01D0FB7848E012220021782096
:1043300000F0CCF90346FB70FB78002B01D0FB7832
:104340003CE0DB220021782000F0C0F90346FB703E
:10435000FB78002B01D0FB7830E040220021782050
:1043600000F0B4F90346FB70FB78002B01D0FB781A
:1043700024E0AF220021782000F0A8F90346FB706A
:10438000FB78002B01D0FB7818E0002000F070F8DB
:1043900000F01CF80346FB70FB78002B01D0FB7883
:1043A0000CE0094B00221A80074B00225A80064B72
:1043B00000221A71044B01225A7100231846083753
:1043C000BD4680BD34030020C40A002080B582B001
:1043D00000AF0023BB7102237B7110233B710023CC
:1043E000FB713BE0FB79503BDBB21A4600217820A1
:1043F00000F06CF90346BB71BB79002B01D0BB798F
:1044000030E07B791A460021782000F05FF90346FE
:10441000BB71BB79002B01D0BB7923E03B791A46F5
:104420000021782000F052F90346BB71BB79002BC4
:1044300001D0BB7916E0FB79DB010C4A1A448023DA
:104440004021782000F066F90346BB71BB79002B50
:1044500001D0BB7906E0FB790133FB71FB79072BB7
:10446000C0D9002318460837BD4680BDC4060020C9
:1044700080B584B000AF0346FB71FB79002B01D1FE
:10448000002300E0FF23FB73FB7B4FF4806219469F
:10449000034805F099FC00BF1037BD4680BD00BF42
:1044A000C406002080B485B000AF0346FB800B46F5
:1044B000BB801346FB70FB887F2B38D8BB883F2B13
:1044C00035D81E4B1B79002B06D0FB78002B0CBF78
:1044D00001230023DBB2FB70BB88DB089BB2DB014E
:1044E0009AB2FB881344FB81BB8803F007030122C7
:1044F00002FA03F37B73FB78012B09D1FB89104A85
:10450000D15CFB897A7B0A43D1B20D4AD1540FE0CA
:10451000FB890B4AD35C5AB297F90D30DB435BB28F
:1045200013405AB2FB89D1B2054AD15400E000BF12
:104530001437BD465DF8047B704700BFC40A0020F5
:10454000C406002080B483B000AF03460A46FB8057
:104550001346BB80054AFB881380044ABB885380FE
:1045600000BF0C37BD465DF8047B7047C40A0020CD
:1045700080B588B000AF03463960FB711346BB714C
:104580003B68002B01D101236FE03A4B1B881A4690
:104590003B681B7813447F2B07D8364B5B881A4641
:1045A0003B685B7813443F2B01D901235DE03B68F6
:1045B0005B787B613B681B783B610023FB6147E0D4
:1045C0003B685A68FB79203B796903FB01F1FB6981
:1045D0000B445B0013441B88FB810023BB6130E06C
:1045E000FA89BB6902FA03F303F40043002B10D0ED
:1045F000204B1A88BB699BB2134498B21D4B5A8852
:10460000FB699BB213449BB2BA791946FFF74AFF84
:1046100014E0184B1A88BB699BB2134498B2154B2F
:104620005A88FB699BB2134499B2BB79002B0CBF2B
:1046300001230023DBB21A46FFF734FFBB690133C5
:10464000BB61BA693B699A42CAD3FB690133FB611A
:10465000FA697B699A42B3D3064B1A883B699BB2CD
:1046600013449AB2034B1A80002318462037BD46E4
:1046700080BD00BFC40A002080B586B000AFF860DE
:10468000B9601346FB71FB68002B02D0BB68002B9E
:1046900012D1012315E0FB681B78FA79B968184636
:1046A000FFF766FF0346FB75FB7D002B01D0FB7D0A
:1046B00007E0FB680133FB60FB681B78002BEAD145
:1046C000002318461837BD4680BD000080B586B06F
:1046D00002AF0346FB710B46BB7113467B71BB797E
:1046E0003B737B797B73FB7999B207F10C0244F63B
:1046F000206300930223064801F000FC0346002BD0
:1047000001D0032300E0002318461037BD4680BDCA
:104710003403002090B5C7B002AF0446084607F541
:104720008871A1F588710A60194607F58873A3F2AC
:10473000091322461A7007F58873A3F5857302469C
:104740001A7007F58873A3F586730A461A8007F571
:104750008873A3F588731B68002B01D1012347E000
:1047600007F58873A3F5827307F58872A2F5857241
:1047700012781A700023A7F80E3115E0B7F80E3141
:1047800007F58872A2F5887212681A44B7F80E31DC
:104790000133117807F58872A2F58272D154B7F807
:1047A0000E310133A7F80E3107F58873A3F5867330
:1047B000B7F80E211B889A42E0D307F58873A3F25D
:1047C00009131B7899B207F58873A3F586731B88C4
:1047D00001339BB207F10C0244F6206000900748B9
:1047E00001F08CFB0346002B01D0032300E00023E3
:1047F000184607F58A77BD4690BD00BF34030020F8
:1048000080B500AF0E4B1B680D4A43F40073136074
:104810000B4B1B680A4A43F480631360084B1B6808
:10482000074A43F480731360032000F041FD0F201A
:1048300000F008F8FEF752FA0023184680BD00BFCA
:10484000003C024080B582B000AF7860124B1A681D
:10485000124B1B7819464FF47A73B3FBF1F3B2FB9A
:10486000F3F3184600F059FD0346002B01D0012355
:104870000EE07B680F2B0AD8002279684FF0FF30DA
:1048800000F021FD064A7B681360002300E001234D
:1048900018460837BD4680BD0400002014000020E3
:1048A0001000002080B400AF064B1B781A46064B60
:1048B0001B681344044A136000BFBD465DF8047BC7
:1048C000704700BF14000020CC0A002080B400AF65
:1048D000034B1B681846BD465DF8047B704700BF5C
:1048E000CC0A002080B584B000AF7860FFF7EEFFFF
:1048F000B8607B68FB60FB68B3F1FF3F05D00A4BF3
:104900001B781A46FB681344FB6000BFFFF7DEFF0D
:104910000246BB68D31AFA689A42F7D800BF00BFB4
:104920001037BD4680BD00BF1400002080B584B0A4
:1049300000AF78600023FB737B68002B01D101235B
:1049400033E07B681B6C002B09D17868FDF7B4FB62
:104950007B6800225A647B68002283F83C207B68D5
:104960001B6C03F01003002B18D17B681B6C23F425
:10497000885323F0020343F002027B681A647868CC
:1049800000F0CAFA7B6800225A647B681B6C23F033
:10499000030343F001027B681A6401E00123FB7307
:1049A0007B68002283F83C20FB7B18461037BD460D
:1049B00080BD000080B485B000AF78600023BB608C
:1049C0007B6893F83C30012B01D1022397E07B6890
:1049D000012283F83C207B681B689B6803F001037D
:1049E000012B18D07B681B689A687B681B6842F0B3
:1049F00001029A60454B1B68454AA2FB03239A0CAF
:104A000013465B001344BB6002E0BB68013BBB6024
:104A1000BB68002BF9D17B681B689B6803F001031E
:104A2000012B5FD17B681B6C23F4E06323F001034F
:104A300043F480727B681A647B681B685B6803F4CC
:104A40008063002B07D07B681B6C23F4405343F436
:104A500080527B681A647B681B6C03F48053B3F547
:104A6000805F06D17B685B6C23F006027B685A642A
:104A700002E07B6800225A647B68002283F83C20B5
:104A8000244BFB607B681B686FF022021A60FB6896
:104A90005B6803F01F03002B0FD17B681B689B68CA
:104AA00003F04053002B29D17B681B689A687B6810
:104AB0001B6842F080429A6020E07B681B68164ABF
:104AC00093421BD17B681B689B6803F04053002B0B
:104AD00014D17B681B689A687B681B6842F080422F
:104AE0009A600BE07B681B6C43F010027B681A64D1
:104AF0007B685B6C43F001027B685A6400231846B4
:104B00001437BD465DF8047B704700BF04000020E9
:104B100083DE1B43002301400020014080B483B0AA
:104B200000AF78607B6893F83C30012B01D1022301
:104B300021E07B68012283F83C207B681B689A682F
:104B40007B681B6822F001029A607B681B689B6887
:104B500003F00103002B09D17B681B6C23F48853FD
:104B600023F0010343F001027B681A647B68002292
:104B700083F83C20002318460C37BD465DF8047BC3
:104B8000704780B584B000AF786039600023FB6067
:104B90007B681B689B6803F48063B3F5806F13D157
:104BA0007B681B689B6803F48073B3F5807F0BD12F
:104BB0007B681B6C43F020027B681A647B680022D0
:104BC00083F83C20012363E0FFF780FEF86021E0DA
:104BD0003B68B3F1FF3F1DD03B68002B07D0FFF7C8
:104BE00075FE0246FB68D31A3A689A4212D27B6875
:104BF0001B681B6803F00203022B0BD07B681B6C45
:104C000043F004027B681A647B68002283F83C202E
:104C100003233DE07B681B681B6803F00203022B43
:104C2000D6D17B681B686FF012021A607B681B6C20
:104C300043F400727B681A647B681B689B6803F00E
:104C40004053002B23D17B681B7E002B1FD17B6838
:104C50001B68DB6A03F47003002B06D07B681B68BB
:104C60009B6803F48063002B11D17B681B6C23F4D9
:104C700080727B681A647B681B6C03F48053002B82
:104C800005D17B681B6C43F001027B681A6400232A
:104C900018461037BD4680BD80B483B000AF786041
:104CA0007B681B68DB6C18460C37BD465DF8047BDF
:104CB0007047000080B485B000AF78603960002391
:104CC000BB607B6893F83C30012B01D1022313E1D8
:104CD0007B68012283F83C203B681B68092B25D99F
:104CE0007B681B68D9683B681B689BB21A461346F1
:104CF0005B0013441E3B072202FA03F3DA437B688E
:104D00001B680A40DA607B681B68D9683B689A6850
:104D10003B681B689BB2184603465B0003441E3B7E
:104D20009A407B681B680A43DA6022E07B681B6854
:104D300019693B681B689BB21A4613465B00134413
:104D4000072202FA03F3DA437B681B680A401A6100
:104D50007B681B6819693B689A683B681B689BB253
:104D6000184603465B0003449A407B681B680A436D
:104D70001A613B685B68062B24D87B681B68596BFB
:104D80003B685A6813469B001344053B1F2202FAF6
:104D900003F3DA437B681B680A405A637B681B682D
:104DA000596B3B681B689BB218463B685A681346B0
:104DB0009B001344053B00FA03F27B681B680A431F
:104DC0005A634CE03B685B680C2B24D87B681B68FB
:104DD000196B3B685A6813469B001344233B1F2200
:104DE00002FA03F3DA437B681B680A401A637B68A4
:104DF0001B68196B3B681B689BB218463B685A6876
:104E000013469B001344233B00FA03F27B681B68A4
:104E10000A431A6323E07B681B68D96A3B685A68B7
:104E200013469B001344413B1F2202FA03F3DA436B
:104E30007B681B680A40DA627B681B68D96A3B683A
:104E40001B689BB218463B685A6813469B00134484
:104E5000413B00FA03F27B681B680A43DA62294B84
:104E6000FB607B681B68284A93420FD13B681B6834
:104E7000122B0BD1FB685B6823F40002FB685A60BD
:104E8000FB685B6843F48002FB685A607B681B68C0
:104E90001D4A93422BD13B681B681C4A934203D0A6
:104EA0003B681B68112B22D1FB685B6823F48002EE
:104EB000FB685A60FB685B6843F40002FB685A6059
:104EC0003B681B68114A934211D1114B1B68114A70
:104ED000A2FB03239A0C13469B0013445B00BB60A8
:104EE00002E0BB68013BBB60BB68002BF9D17B686B
:104EF000002283F83C20002318461437BD465DF895
:104F0000047B704700230140002001401200001084
:104F10000400002083DE1B4380B485B000AF7860BE
:104F2000794BFB60FB685B6823F44032FB685A6096
:104F3000FB685A687B685B681A43FB685A607B6849
:104F40001B685A687B681B6822F480725A607B6811
:104F50001B6859687B681B691A027B681B680A43D7
:104F60005A607B681B685A687B681B6822F0407235
:104F70005A607B681B6859687B689A687B681B6805
:104F80000A435A607B681B689A687B681B6822F436
:104F900000629A607B681B6899687B68DA687B6846
:104FA0001B680A439A607B689B6A584A934222D0E6
:104FB0007B681B689A687B681B6822F070629A6045
:104FC0007B681B6899687B689A6A7B681B680A43E0
:104FD0009A607B681B689A687B681B6822F0405265
:104FE0009A607B681B6899687B68DA6A7B681B68D3
:104FF0000A439A600FE07B681B689A687B681B68AD
:1050000022F070629A607B681B689A687B681B68F4
:1050100022F040529A607B681B689A687B681B6824
:1050200022F002029A607B681B6899687B681B7E8D
:105030005A007B681B680A439A607B6893F82030AB
:10504000002B1BD07B681B685A687B681B6842F486
:1050500000625A607B681B685A687B681B6822F490
:1050600060425A607B681B6859687B685B6A013BD9
:105070005A037B681B680A435A6007E07B681B6819
:105080005A687B681B6822F400625A607B681B6860
:10509000DA6A7B681B6822F47002DA627B681B683C
:1050A000D96A7B68DB69013B1A057B681B680A4388
:1050B000DA627B681B689A687B681B6822F400725E
:1050C0009A607B681B6899687B6893F830305A0255
:1050D0007B681B680A439A607B681B689A687B68D8
:1050E0001B6822F480629A607B681B6899687B6801
:1050F0005B699A027B681B680A439A6000BF143799
:10510000BD465DF8047B7047002301400100000F9D
:1051100080B485B000AF78607B6803F00703FB6064
:105120000C4BDB68BB60BA684FF6FF031340BB60F3
:10513000FB681A02BB68134343F0BF6343F40033B8
:10514000BB60044ABB68D36000BF1437BD465DF83E
:10515000047B704700ED00E080B400AF044BDB68D7
:105160001B0A03F007031846BD465DF8047B704731
:1051700000ED00E080B483B000AF0346FB7197F907
:105180000730002B0BDBFB7903F01F02074997F96F
:1051900007305B09012000FA02F241F8232000BF2A
:1051A0000C37BD465DF8047B704700BF00E100E0AE
:1051B00080B483B000AF03463960FB7197F90730C4
:1051C000002B0ADB3B68DAB20C4997F90730120171
:1051D000D2B20B4483F800230AE03B68DAB20849F4
:1051E000FB7903F00F03043B1201D2B20B441A7691
:1051F00000BF0C37BD465DF8047B704700E100E05E
:1052000000ED00E080B489B000AFF860B9607A606A
:10521000FB6803F00703FB61FB69C3F10703042B81
:1052200028BF0423BB61FB690433062B02D9FB6949
:10523000033B00E000237B614FF0FF32BB6902FAC1
:1052400003F3DA43BB681A407B699A404FF0FF31A1
:105250007B6901FA03F3D9437B680B40134318467B
:105260002437BD465DF8047B7047000080B582B0EE
:1052700000AF78607B68013BB3F1807F01D30123ED
:105280000FE00A4A7B68013B53600F214FF0FF306B
:10529000FFF78EFF054B00229A60044B07221A602D
:1052A000002318460837BD4680BD00BF10E000E06F
:1052B00080B582B000AF78607868FFF729FF00BF43
:1052C0000837BD4680BD80B586B000AF0346B960E3
:1052D0007A60FB7300237B61FFF73EFF78617A6899
:1052E000B9687869FFF78EFF024697F90F301146CB
:1052F0001846FFF75DFF00BF1837BD4680BD80B57B
:1053000082B000AF0346FB7197F907301846FFF7EC
:1053100031FF00BF0837BD4680BD80B582B000AF09
:1053200078607868FFF7A2FF034618460837BD4645
:1053300080BD000080B586B000AF786000237B613F
:10534000FFF7C4FA38617B68002B01D1012399E093
:105350007B68022283F835207B68002283F83420A2
:105360007B681B681A687B681B6822F001021A6060
:105370000FE0FFF7ABFA02463B69D31A052B08D9B9
:105380007B6820225A657B68032283F8352003233B
:1053900078E07B681B681B6803F00103002BE8D1F1
:1053A0007B681B681B687B617A69384B13407B61A3
:1053B0007B685A687B689B681A437B68DB681A4382
:1053C0007B681B691A437B685B691A437B689B692E
:1053D0001A437B68DB691A437B681B6A13437A694B
:1053E00013437B617B685B6A042B07D17B68DA6AB5
:1053F0007B681B6B13437A6913437B617B681B6873
:105400007A691A607B681B685B697B617B6923F042
:1054100007037B617B685B6A7A6913437B617B6806
:105420005B6A042B17D17B689B6A7A6913437B61A3
:105430007B68DB6A002B0ED0786800F0E9F9034640
:10544000002B08D07B6840225A657B68012283F8D4
:105450003520012316E07B681B687A695A617868F9
:1054600000F0A0F90346FB607B68DB6D3F229A40A9
:10547000FB689A607B6800225A657B68012283F88A
:105480003520002318461837BD4680BD3F8010F0F8
:1054900080B586B000AF78600023BB608E4B1B6880
:1054A0008E4AA2FB03239B0A7B617B689B6D3B6159
:1054B0003B691B68FB607B68DB6D08229A40FB68D8
:1054C0001340002B1AD07B681B681B6803F0040391
:1054D000002B13D07B681B681A687B681B6822F05E
:1054E00004021A607B68DB6D08229A403B699A606F
:1054F0007B685B6D43F001027B685A657B68DB6DFE
:1055000001229A40FB681340002B12D07B681B6875
:105510005B6903F08003002B0BD07B68DB6D0122FD
:105520009A403B699A607B685B6D43F002027B683E
:105530005A657B68DB6D04229A40FB681340002BA0
:1055400012D07B681B681B6803F00203002B0BD092
:105550007B68DB6D04229A403B699A607B685B6DD7
:1055600043F004027B685A657B68DB6D10229A4029
:10557000FB681340002B43D07B681B681B6803F05B
:105580000803002B3CD07B68DB6D10229A403B69FE
:105590009A607B681B681B6803F48023002B18D07B
:1055A0007B681B681B6803F40023002B08D17B6811
:1055B0001B6C002B24D07B681B6C786898471FE01D
:1055C0007B689B6C002B1BD07B689B6C7868984732
:1055D00016E07B681B681B6803F48073002B07D1FF
:1055E0007B681B681A687B681B6822F008021A60D7
:1055F0007B681B6C002B03D07B681B6C786898471A
:105600007B68DB6D20229A40FB681340002B00F082
:105610008F807B681B681B6803F01003002B00F071
:1056200087807B68DB6D20229A403B699A607B68AB
:1056300093F83530DBB2052B36D17B681B681A68CE
:105640007B681B6822F016021A607B681B685A6927
:105650007B681B6822F080025A617B681B6C002B00
:1056600003D17B689B6C002B07D07B681B681A6892
:105670007B681B6822F008021A607B68DB6D3F22A2
:105680009A403B699A607B68012283F835207B68E9
:10569000002283F834207B681B6D002B7ED07B6852
:1056A0001B6D7868984779E07B681B681B6803F47A
:1056B0008023002B1DD07B681B681B6803F400232C
:1056C000002B0DD17B685B6C002B31D07B685B6C51
:1056D000786898472CE000BF04000020B5814E1B7D
:1056E0007B68DB6B002B23D07B68DB6B786898478B
:1056F0001EE07B681B681B6803F48073002B0FD1CE
:105700007B681B681A687B681B6822F010021A60AD
:105710007B68012283F835207B68002283F83420DF
:105720007B68DB6B002B03D07B68DB6B786898476A
:105730007B685B6D002B32D07B685B6D03F00103EF
:10574000002B22D07B68052283F835207B681B68FC
:105750001A687B681B6822F001021A60BB6801337B
:10576000BB607A699A4207D37B681B681B6803F0A9
:105770000103002BF2D100E000BF7B68012283F817
:1057800035207B68002283F834207B68DB6C002B9B
:1057900005D07B68DB6C7868984700E000BF18375D
:1057A000BD4680BD80B485B000AF78607B681B6863
:1057B000DBB2103B144AA2FB03231B09FB60134A14
:1057C000FB6813441B781A467B68DA65FB68032B79
:1057D00009D97B681B6823F47F7323F003031A1D28
:1057E0007B689A6507E07B681B6823F47F7323F06E
:1057F00003037A6893657B689B6D18461437BD4632
:105800005DF8047B704700BFABAAAAAAA8D600081F
:1058100080B485B000AF78600023FB737B689B6A1F
:10582000BB607B689B69002B1FD1BB68032B56D8DC
:1058300001A252F823F000BF495800085B58000845
:1058400049580008DF5800087B68DB6A03F0807362
:10585000002B46D00123FB7343E07B68DB6AB3F186
:10586000C07F40D10123FB733DE07B689B69B3F5AA
:10587000005F21D1BB68032B37D801A252F823F077
:10588000915800089758000891580008A958000836
:105890000123FB7330E07B68DB6A03F08073002B2D
:1058A00025D00123FB7322E07B68DB6AB3F1C07F64
:1058B0001FD10123FB731CE0BB68022B03D9BB681B
:1058C000032B03D018E00123FB7315E07B68DB6A30
:1058D00003F08073002B0ED00123FB730BE000BF9D
:1058E0000AE000BF08E000BF06E000BF04E000BF20
:1058F00002E000BF00E000BFFB7B18461437BD4646
:105900005DF8047B704700BF80B489B000AF786059
:10591000396000237B6100233B610023BB610023CE
:10592000FB6159E10122FB6902FA03F37B613B68E9
:105930001B687A6913403B613A697B699A4240F07F
:1059400048813B685B6803F00303012B05D03B688B
:105950005B6803F00303022B30D17B689B68BB615B
:10596000FB695B00032202FA03F3DB43BA691340CD
:10597000BB613B68DA68FB695B0002FA03F3BA6952
:105980001343BB617B68BA699A607B685B68BB61E3
:105990000122FB6902FA03F3DB43BA691340BB61DE
:1059A0003B685B681B0903F00102FB6902FA03F321
:1059B000BA691343BB617B68BA695A603B685B682C
:1059C00003F00303032B17D07B68DB68BB61FB6923
:1059D0005B00032202FA03F3DB43BA691340BB61A5
:1059E0003B689A68FB695B0002FA03F3BA691343E8
:1059F000BB617B68BA69DA603B685B6803F00303EC
:105A0000022B23D1FB69DA087B68083253F8223075
:105A1000BB61FB6903F007039B000F2202FA03F34B
:105A2000DB43BA691340BB613B681A69FB6903F049
:105A300007039B0002FA03F3BA691343BB61FB69D6
:105A4000DA087B680832B96943F822107B681B6862
:105A5000BB61FB695B00032202FA03F3DB43BA6913
:105A60001340BB613B685B6803F00302FB695B00AA
:105A700002FA03F3BA691343BB617B68BA691A601F
:105A80003B685B6803F44033002B00F0A2800023E6
:105A9000FB60574B5B6C564A43F480435364544B52
:105AA0005B6C03F48043FB60FB68524AFB699B0814
:105AB000023352F82330BB61FB6903F003039B0000
:105AC0000F2202FA03F3DB43BA691340BB617B6820
:105AD000494A934219D07B68484A934213D07B6865
